:10092A004E443A002520007A0073004620004E20EB
:10093A000020004D41583A00202000252020004D7B
:06094A00494E3A002500B1
:10076A000132000233000002350000022D000002AF
:10077A002900000230000002390000012F00C10BDD
:10078A00C105C107C108C109C10AC104C101C18C9F
:10079A00C103012500022600000223003C023700A3
:1007AA0000023B0000012800C186C182C100C10DC0
:0307BA0001220019
:10080F00D295C296C295D297D296C296D297D296C9
:10081F00C296A20E9297D296C296D297D296E4FF24
:10082F00EFC39408748094805011D296C296ED2530
:10083F00E0FDA297E43342050F80E5D295EDFF7EF0
:01084F0000A8
:010850002285
:040950007F147E0092
:0B095400EF1FAC0670011E4C70F62275
:1008CB00AE2BAF2C7C0012028E7C007D0A12028EA6
:0908DB00ED2430FDE43CFC7F013A
:1008E400AB05C2A2EF24FF92A08B80C2A1D2A27F4B
:0908F400057E00120954C2A22283
:0608FD007BFF7A0979423D
:100903008B088A09890AAB08AA09A90A1202756029
:1009130015FD7C007F011208E47401250AF50AE441
:070923003509F50980E0220F
:100851007D017C00E4FF1208E47FDC7E051209546F
:100861007D387C00E4FF1208E47FDC7E0512095428
:100871007D0C7C00E4FF1208E47D067C00E4FF129D
:1008810008E47DD07C00E4FF1208E47FDC7E0502F1
:02089100095408
:10048300300E0B7D017C00E4FF1208E4C3227D8063
:100493007C00E4FF1208E47BFF7A09792A1209033E
:1004A3007D641208CB7D0A1208CBAE2BAF2C120849
:1004B300D47BFF7A09792E1209037BFF200C067A7D
:1004C30009793180047A0979331209037BFF200308
:1004D300067A09793580047A097938120903E52502
:1004E30075F00A84E5F02430FDE433FC7F01120843
:1004F300E47BFF7A09793B120903AE23AF247C0026
:100503007D641208D1AE23AF247C007D0A1208D18A
:10051300AE23AF241208D4852B2D852C2E7DC07CD1
:1005230000E4FF1208E47BFF7A09793D120903E531
:1005330028640170083000051208FD8012AE37AF41
:10054300387C007D0A1208D1AE37AF381208D47B4D
:10055300FF7A0979451209037BFF7A097949120960
:1005630003E528640270083000051208FD8012AE0E
:100573003BAF3C7C007D0A1208D1AE3BAF3C120876
:0C058300D47BFF7A09794E120903D322C1
:1002F10020B51B120950300517C205E5282401FF5E
:10030100E433FE7C007D0312028E8D288002D2052B
:1003110020B41F12095030071BC207E5287002B232
:100321000C200C06C290D291800AC203C291D290D5
:100331008002D20720B20C120950300808C208B25C
:10034100038002D20820B34112095030093DC2098D
:10035100300C11E5252401FFE433FE7C007D0312FE
:10036100028E8D25AF257E00EF64027007F523759F
:1003710024C88017EF64014E7007F5237524788037
:100381000A75230075243C8002D20920B10C1209A0
:1003910050300A08C20AB2A38002D20A20B66512FE
:1003A1000950300461C204AF287E00EF640170156A
:1003B100C3E5389464E5379400500A0538E5387090
:1003C1004505378041EF64024E701DE53824FFFF7B
:1003D100E53734FFFEC3E53C9FE53B9E500A053CF3
:1003E100E53C7022053B801EE528701AC3E5249484
:1003F100C8E5239400500F740A2524F524E435231D
:10040100F5238002D20420B766120950300162C27E
:1004110001AF287E00EF64017015D3E5389401E542
:10042100379400400AE5381538704615378042EF99
:1004310064024E701DE53824FFFFE53734FFFEC32B
:10044100E53C9FE53B9E500AE53C153C7023153B7E
:10045100801FE528701BD3E5249400E52394004018
:100461001074F62524F52474FF3523F5238002D278
:100471000120930B120950300B07C20BB20D22D28F
:020481000B224C
:1006FC00D3E52E9538E52D95374007D203752502A5
:10070C00802DC3E52E953CE52D953B4012D3E52E6F
:10071C009538E52D95375007D2037525018010C308
:10072C00E52E953CE52D953B5005C203E4F525AF30
:10073C00257E00EF65277002E52660218E268F2727
:10074C00EF64017006F52375247822EF64024E7075
:0E075C0006F5237524C82275230075243C225F
:1007BE0075370075383C753B00753C1E7589117593
:1007CE008D3C758BB0758A9C758CFFD2ABD2A9D23D
:1007DE00AFD28CD28E120851D2A3200C06C290D268
:1007EE00918004C291D290200C081206FC3003F7BF
:1007FE008003300306D2A4C2A580ECC2A4C2A58099
:01080E00E603
:03000B0002089355
:04089300C0E0C0D031
:10089700C28C758A9C758CFF0522D3E5229524E4CA
:1008A70095235007300304D2A68002C2A60522C3AF
:0F08B700E52294C8748094804003752200D28C8F
:0508C600D0D0D0E032AB
:03001B0002058F4C
:10058F00C0E0C0F0C083C082C0D075D000C000C032
:10059F0001C002C003C004C005C006C007758D3C72
:1005AF00758BB0053AE53A70020539C3E532940A06
:1005BF007480948050130532C20E12080FEF253449
:1005CF00F534EE3533F5338060753200AE33AF342A
:1005DF007C007D0A12028E8E338F34D3E53494243F
:1005EF00E5339400500675330075342474DC2534DC
:1005FF00F53474FF3533F533FCAD34E41201BB7BB6
:10060F00F67A28790C7840120119A804A905AA06D0
:10061F00AB07E4FFFE7DC87C421200211201F48E6D
:10062F002B8F2C753300753400C3E53A940AE539E6
:10063F0094004008753900753A00B2001202F1A219
:10064F000D920E120483D007D006D005D004D0032C
:10065F00D002D001D000D0D0D082D083D0F0D0E063
:01066F003258
:10001E00020260E86480F8E933E83360110460F0AE
:10002E00ED33EC337009E8FCE9FDEAFEEBFF220448
:10003E0060DED3EB9FEA9EE99DE8C2E78CF0C2F743
:10004E0095F0400CE8CCF8E9CDF9EACEFAEBCFFB0F
:10005E0012022B85D0F05804700320D5B3E804703B
:10006E00075002B2D502026A92D5EC0460F7E4CCD6
:10007E00C0E0C398F8603B94186008400DD0E0FBD8
:10008E00020242E4FBFAC9FC8028E830E406E4C927
:10009E00FBE4CAFCE830E305E4C9CACBFCE854072C
:1000AE006010F8C3E913F9EA13FAEB13FBEC13FC37
:1000BE00D8F130F52FC3E49CFCEF9BFFEE9AFEEDDA
:1000CE0099FDD0E0FBEF4E4D4C701222DB03020285
:1000DE0067EC2CFCEF33FFEE33FEED33FDED30E736
:1000EE00EB020242EF2BFFEE3AFEED39FDD0E0FBC4
:1000FE0050130BBB000302026AED13FDEE13FEEF6D
:08010E0013FFEC13FC02024296
:1001160002026AEC5D046005E8590470030202609D
:1001260012022B580460F6EC4860F2EC7004FDFEF7
:10013600FF22C860DB2481C85009C39860025006BC
:100146000202679850CAF582E9294B4A7005AB82CC
:1001560002025675F0007C1A7880C3EF9BEE9AED8A
:1001660099400DC3EF9BFFEE9AFEED99FDE842F034
:10017600DC23ACF0D0E0FFD0E0FED0E0FDAB822087
:10018600E7101BEB60BAEC2CFCEF33FFEE33FEED11
:1001960033FD020242E803F830E705C0F075F000CF
:1001A600EF2FFFEE33FEED33FD40B830E7C280AAF5
:1001B60075F020800E75F010800575F0087D007EC4
:1001C600007F003392D530D5031202E3EC334010A2
:1001D600EF33FFEE33FEED33FDEC33FCD5F0ED22CD
:0E01E600E5F0247EA2D513CC92E7CDCEFF2209
:1001F400EDD2E7CD33EC3392D524814006E4FFFE03
:10020400FDFC22FCE4CFCECDCC24E0501174FF8061
:10021400EDC3CC13CCCD13CDCE13CECF13CF0470FE
:07022400F030D5DE0202E319
:10022B00E9D2E7C933E833F892D5EDD2E7CD33EC19
:07023B0033FC5002B2D52292
:10024200EC30E7100FBF000C0EBE00080DBD00041D
:100252000BEB6014A2D5EB13FCED92E7FD2274FFC9
:10026200FCFDFEFF22E480F8A2D574FF13FC7D8022
:03027200E480EF36
:0300000002067085
:0C067000787FE4F6D8FD75813C0206B7E7
:10027500BB010689828A83E0225002E722BBFE0287
:09028500E32289828A83E49322BA
:10028E00BC000BBE0029EF8DF084FFADF022E4CC54
:10029E00F875F008EF2FFFEE33FEEC33FCEE9DEC1D
:1002AE00984005FCEE9DFE0FD5F0E9E4CEFD22ED63
:1002BE00F8F5F0EE8420D21CFEADF075F008EF2FAD
:1002CE00FFED33FD4007985006D5F0F222C398FD9E
:0502DE000FD5F0EA223B
:0E02E300C3E49FFFE49EFEE49DFDE49CFC222C
:10067C000207BEE493A3F8E493A34003F68001F2CF
:10068C0008DFF48029E493A3F85407240CC8C3337F
:10069C00C4540F4420C8834004F456800146F6DF4E
:1006AC00E4800B010204081020408090076AE47E6D
:1006BC00019360BCA3FF543F30E509541FFEE49343
:1006CC00A360010ECF54C025E060A840B8E493A30A
:1006DC00FAE493A3F8E493A3C8C582C8CAC583CA35
:1006EC00F0A3C8C582C8CAC583CADFE9DEE780BEED
:0107BD00003B
:00000001FF
